:100000000C9462000C948A000C948A000C948A0070
:100010000C948A000C948A000C948A000C948A0038
:100020000C948A000C948A000C948A000C948A0028
:100030000C948A000C948A000C948A000C948A0018
:100040000C94A4030C948A000C9472030C944C033B
:100050000C948A000C948A000C948A000C948A00F8
:100060000C948A000C948A000000000025002800EF
:100070002B0000000000240027002A0000000000E0
:1000800023002600290004040404040404040202DA
:100090000202020203030303030301020408102007
:1000A0004080010204081020010204081020000012
:1000B0000008000201000003040700000000000027
:1000C0000000EE0311241FBECFEFD8E0DEBFCDBF8E
:1000D00022E0AAE4B1E001C01D92A235B207E1F727
:1000E00011E0A0E0B1E0E2E9FFE002C005900D926E
:1000F000AA34B107D9F710E0C2E6D0E004C02197D6
:10010000FE010E94C107C136D107C9F70E9437041A
:100110000C94C7070C940000EBE6F1E0A089B189CC
:1001200082E08C93A485B5851C92A685B7858FEC5B
:100130008C93108EA489B58986E08C93A289B389AB
:100140008C9180618C93A289B3898C9188608C9307
:10015000A289B3898C9180688C930288F389E02D01
:1001600080818F7D80830895AF92BF92CF92DF927E
:10017000EF92FF920F931F93CF93DF936C017B015C
:100180008B01040F151FEB015E01AE18BF08C017ED
:10019000D10759F06991D601ED91FC910190F08160
:1001A000E02DC6010995892B79F7C501DF91CF9123
:1001B0001F910F91FF90EF90DF90CF90BF90AF9085
:1001C0000895FC01538D448D252F30E0842F90E05D
:1001D000821B930B541710F0CF9608950197089542
:1001E000FC01918D828D981761F0A28DAE0FBF2F0B
:1001F000B11D5D968C91928D9F5F9F73928F90E061
:1002000008958FEF9FEF0895FC01918D828D9817CF
:1002100031F0828DE80FF11D858D90E008958FEF0C
:100220009FEF0895FC01918D228D892F90E0805CD5
:100230009F4F821B91098F73992708958BE691E058
:100240000E94120121E0892B09F420E0822F0895F9
:1002500080E090E0892B29F00E941E0181110C940E
:1002600000000895FC01A48DA80FB92FB11DA35A59
:10027000BF4F2C91848D90E001968F739927848FC6
:10028000A689B7892C93A089B1898C9183708064E9
:100290008C93938D848D981306C00288F389E02D8A
:1002A00080818F7D80830895EF92FF920F931F933B
:1002B000CF93DF93EC0181E0888F9B8D8C8D981319
:1002C0001AC0E889F989808185FF15C09FB7F89425
:1002D000EE89FF896083E889F98980818370806471
:1002E00080839FBF81E090E0DF91CF911F910F91BC
:1002F000FF90EF900895F62E0B8D10E00F5F1F4FCB
:100300000F731127E02E8C8D8E110CC00FB607FCD9
:10031000FACFE889F989808185FFF5CFCE010E9467
:100320003201F1CFEB8DEC0FFD2FF11DE35AFF4FA2
:10033000F0829FB7F8940B8FEA89FB8980818062F5
:10034000CFCFCF93DF93EC01888D8823B9F0AA89B2
:10035000BB89E889F9898C9185FD03C0808186FD80
:100360000DC00FB607FCF7CF8C9185FFF2CF8081CF
:1003700085FFEDCFCE010E943201E9CFDF91CF9111
:100380000895833081F028F4813099F08230A9F00B
:1003900008958730A9F08830C9F08430B1F4809195
:1003A00080008F7D03C0809180008F7780938000D4
:1003B000089584B58F7784BD089584B58F7DFBCF74
:1003C0008091B0008F778093B00008958091B00045
:1003D0008F7DF9CF1F93CF93DF93282F30E0F90162
:1003E000E255FF4F8491F901E656FF4FD491F90190
:1003F000EA57FF4FC491CC23A9F0162F81110E9418
:10040000C101EC2FF0E0EE0FFF1FE859FF4FA5915F
:10041000B4918FB7F894EC91111108C0D095DE23F8
:10042000DC938FBFDF91CF911F910895DE2BF8CF22
:100430003FB7F8948091510190915201A0915301DE
:10044000B091540126B5A89B05C02F3F19F0019625
:10045000A11DB11D3FBFBA2FA92F982F8827BC011E
:10046000CD01620F711D811D911D42E0660F771F46
:10047000881F991F4A95D1F708952FB7F894609176
:100480004D0170914E0180914F01909150012FBF0D
:1004900008950F931F93CF93C82F0E9418020091C5
:1004A0004E0210914F022091500230915102601B78
:1004B000710B820B930B613B744081059105BCF17C
:1004C0008BB183708BB980914A0190914B012BB114
:1004D00080509F4FFC018081822B8BB980914A0113
:1004E00090914B01CC23E1F08730910599F4109263
:1004F0004B0110924A010E94180260934E027093C1
:100500004F02809350029093510281E0CF911F914E
:100510000F910895019690934B0180934A01EBCF80
:10052000009719F487E090E0F6CF0197F4CF80E0D0
:10053000EDCFFC0101900020E9F73197AF01481B96
:10054000590BBC018BE691E00C94B4008F929F9202
:10055000AF92BF920F931F93CF93DF93CDB7DEB7C8
:10056000A1970FB6F894DEBF0FBECDBF19A24230DF
:1005700008F44AE08E010F5D1F4F842E912CB12CA0
:10058000A12CA50194010E949F07E62FB901CA0181
:10059000EA30F4F4E05DD801EE938D01232B242B97
:1005A000252B79F790E080E0109719F0CD010E949B
:1005B0009902A1960FB6F894DEBF0FBECDBFDF91B2
:1005C000CF911F910F91BF90AF909F908F90089502
:1005D000E95CE1CF1F93CF93DF9300D000D0CDB77C
:1005E000DEB78BE691E00E94F0008BE691E00E947E
:1005F000F00010E08A3379F0E1E0F0E0EC0FFD1F4D
:10060000E10FF11D17FDFA9580831F5F8BE691E0E6
:100610000E94F000EFCFCE0101960E947907182FBB
:100620008BE691E00E94F0008053990B8230910597
:1006300020F4682F812F0E94EA018BE691E00E944E
:10064000F0008A3011F08D30C1F78BE691E00E9406
:1006500004018A3021F48BE691E00E94F0000F90B3
:100660000F900F900F90DF91CF911F910895CF932E
:10067000DF93EC01BC01990F880B990B4AE00E94B3
:10068000A6028AE191E00E949902D0936401C0938E
:100690006301DF91CF9108951F920F920FB60F92D1
:1006A00011242F933F934F935F936F937F938F9377
:1006B0009F93AF93BF93EF93FF938BE691E00E94DC
:1006C0003201FF91EF91BF91AF919F918F917F91F7
:1006D0006F915F914F913F912F910F900FBE0F90AF
:1006E0001F9018951F920F920FB60F9211242F93FF
:1006F0008F939F93EF93FF93E0917B01F0917C01A7
:100700008081E0918101F091820182FD1BC0908186
:10071000809184018F5F8F7320918501821741F052
:10072000E0918401F0E0E559FE4F958F80938401BC
:10073000FF91EF919F918F912F910F900FBE0F908E
:100740001F9018958081F4CF1F920F920FB60F92D1
:1007500011242F933F938F939F93AF93BF938091D7
:100760004D0190914E01A0914F01B09150013091F7
:100770004C0123E0230F2D3758F50196A11DB11D23
:1007800020934C0180934D0190934E01A0934F0113
:10079000B09350018091510190915201A091530169
:1007A000B09154010196A11DB11D80935101909308
:1007B0005201A0935301B0935401BF91AF919F9107
:1007C0008F913F912F910F900FBE0F901F90189512
:1007D00026E8230F0296A11DB11DD2CFEBE6F1E072
:1007E0001382128288EE93E0A0E0B0E084839583C8
:1007F000A683B7838CE091E09183808385EC90E0C1
:100800009587848784EC90E09787868780EC90E0DA
:10081000918B808B81EC90E0938B828B82EC90E0CB
:10082000958B848B86EC90E0978B868B118E128E45
:10083000138E148EE8E0F2E016821782108611867D
:10084000128613861486158616861786108A118AD4
:10085000128A138A148A158A0E94180260934E0223
:1008600070934F02809350029093510208957894B0
:1008700084B5826084BD84B5816084BD85B58260A5
:1008800085BD85B5816085BD80916E008160809356
:100890006E001092810080918100826080938100BF
:1008A00080918100816080938100809180008160CF
:1008B000809380008091B10084608093B10080912A
:1008C000B00081608093B00080917A008460809352
:1008D0007A0080917A00826080937A0080917A0019
:1008E000816080937A0080917A00806880937A009A
:1008F0001092C10010924A0210924B0210924C02C8
:1009000010924D0210920A0210920B0210920C02E9
:1009100010920D020E943D026B017C014B015C01B3
:1009200028EB820E2BE0921EA11CB11C0E943D02FE
:100930006C157D058E059F0528F086169706A8067E
:10094000B906A0F70E9418024B015C0158EEC52EB3
:1009500053E0D52EE12CF12C0E9418026819790978
:100960008A099B09683E734081059105A8F331E02F
:10097000C31AD108E108F10848EE840E43E0941E42
:10098000A11CB11CC114D104E104F10429F70E9497
:100990008C000E943D0260930A0270930B028093C8
:1009A0000C0290930D028DE191E00E9499020E9449
:1009B0003D026B017C014B015C018AE0880E911CB9
:1009C000A11CB11C0E943D026C157D058E059F0582
:1009D00028F086169706A806B906A0F781E080934E
:1009E0001E020E943D0260930A0270930B028093E4
:1009F0000C0290930D028EE291E00E9499028AB15E
:100A0000806F8AB9E7EAF0E02491E3E9F0E08491AD
:100A10008823C1F090E0880F991FFC01EE58FF4F2A
:100A2000A591B491FC01E859FF4FC591D4913FB70E
:100A3000F8949C91822F809598239C939881892388
:100A400088833FBFE5EAF0E02491E1E9F0E084919A
:100A5000882399F090E0880F991FFC01EE58FF4F12
:100A6000A591B491FC01E859FF4F859194918FB7FE
:100A7000F894EC91E22BEC938FBF0E948C0090E0F5
:100A800080E00E94370301E094EFC92EDD24D39467
:100A9000E12CF12C23E0222E312C11E00E943D02AA
:100AA000672B682B692B09F4F0C00E943D0240902F
:100AB0006701509068016090690170906A01641547
:100AC00075058605970508F409C1409067015090A7
:100AD00068016090690170906A019B01AC01241962
:100AE00035094609570929013A013AEF43165104DD
:100AF0006104710408F4D1C06093670170936801C8
:100B00008093690190936A01C0921602D0921702F5
:100B1000E0921802F092190210921A0210921B022F
:100B200010921C0210921D0280910E0290910F02F1
:100B3000A0911002B09111028093120290931302BF
:100B4000A0931402B09315020E943D0260930E021E
:100B500070930F0280931002909311028BE691E044
:100B60000E940401843611F40E94EA020E943D02B0
:100B700060930A0270930B0280930C0290930D0213
:100B80000E943D022B013C0185E391E00E94990205
:100B90004AE061E070E080E090E00E94A6028CE311
:100BA00091E00E9499024AE0C301B2010E94A602AC
:100BB0008EE391E00E94990280910E0290910F02C3
:100BC000A0911002B0911102A3019201281B390BD0
:100BD0004A0B5B0BCA01B9014AE00E94A6028EE3F0
:100BE00091E00E94990260910E0270910F02809133
:100BF00010029091110240901202509013026090E6
:100C000014027090150264197509860997094AE063
:100C10000E94A60280E491E00E9499020E943D0297
:100C20004AE00E94A60282E491E00E9499028AE1D1
:100C300091E00E9499020E943D024B015C012B0150
:100C40003C0135E0430E511C611C711C0E943D02A9
:100C5000681579058A059B0528F04616570668062B
:100C60007906A0F78BE691E00E940401843611F426
:100C70000E94EA020E943D0260930E0270930F02EE
:100C8000809310029093110208C00E943D026230CE
:100C900071058105910508F008CFEBEBF0E0849138
:100CA000E7EAF0E0C491E3E9F0E0D491D1111FC08C
:100CB0001092660110926501C0915A01D0915B01BA
:100CC000209709F468C01092550142E050E050931B
:100CD000660140936501D0E0C0E036C060936701D3
:100CE000709368018093690190936A01EECE81113F
:100CF0000E94C101ED2FF0E0EE0FFF1FE458FF4FFF
:100D0000A591B4918C91C82399F2C0915A01D091C8
:100D10005B011092660110926501C130D105D9F1D5
:100D20000E943D02609356017093570180935801D1
:100D3000909359011093550121E030E03093660102
:100D400020936501C1E0D0E0D0935B01C0935A01CC
:100D50008091650190916601039721F481E090E014
:100D60000E94370380916301909164018130910565
:100D700009F479C074F5892B09F460C080E090E033
:100D8000892B09F48BCE0E941E01882309F486CE9C
:100D90000E94000083CE809155018823A9F20E9411
:100DA0003D0240905601509057016090580170905C
:100DB00059016419750986099709693B7B408105CA
:100DC000910510F230926601209265011092550152
:100DD000BBCF8230910509F45EC0039779F660E0DD
:100DE0008BE00E94EA01C0915C018C2F0E944902B5
:100DF000882349F080915F01909160010197909361
:100E0000600180935F0180915F0190916001892B67
:100E100059F48091610190916201909360018093F7
:100E20005F01C027C0935C018091650190916601CC
:100E3000019709F0A3CF90E080E02AC0809165017E
:100E400090916601029709F099CF8091610190918C
:100E50006201892B09F492CF60E08BE00E94EA01E5
:100E600083E090E015C061E08BE00E94EA01809190
:100E7000650190916601019709F080CF10926001A1
:100E800010925F01109262011092610182E090E085
:100E90000E94370373CF81E090E020915D01309193
:100EA0005E01232B11F090E080E090935E0180932F
:100EB0005D0180E00E944902882349F08091610130
:100EC00090916201019690936201809361018091FB
:100ED000650190916601019709F050CF8091610101
:100EE000909162019093600180935F0110935C0187
:100EF000B7CFFC0188279927E89421912032E9F3A4
:100F0000293010F02E30C8F32B3241F02D3239F455
:100F1000689404C00E949707820F911D219120536D
:100F20002A30C0F31EF4909581959F4F08957AE082
:100F3000979F902D879F802D910D11240895A1E2F8
:100F40001A2EAA1BBB1BFD010DC0AA1FBB1FEE1F43
:100F5000FF1FA217B307E407F50720F0A21BB30B8E
:100F6000E40BF50B661F771F881F991F1A9469F70A
:100F700060957095809590959B01AC01BD01CF0166
:100F80000895EE0FFF1F0590F491E02D0994F89459
:020F9000FFCF91
:100F920030206040C0809010000000005401B40076
:100FA200E100A1011201F00004010D0A00564D44B6
:100FB20050565F317C315F564D4450560A00564DB3
:100FC2004450525F00564D4450455F003A323A0059
:0A0FD2007C005F564D4450450000BE
:00000001FF
